{
  "_format": "hh-sol-artifact-1",
  "contractName": "VoteChain",
  "sourceName": "contracts/VoteChain.sol",
  "abi": [
    {
      "inputs": [],
      "stateMutability": "nonpayable",
      "type": "constructor"
    },
    {
      "anonymous": false,
      "inputs": [
        {
          "indexed": true,
          "internalType": "uint256",
          "name": "electionId",
          "type": "uint256"
        },
        {
          "indexed": true,
          "internalType": "uint256",
          "name": "candidateId",
          "type": "uint256"
        },
        {
          "indexed": false,
          "internalType": "string",
          "name": "name",
          "type": "string"
        }
      ],
      "name": "CandidateAdded",
      "type": "event"
    },
    {
      "anonymous": false,
      "inputs": [
        {
          "indexed": true,
          "internalType": "uint256",
          "name": "electionId",
          "type": "uint256"
        },
        {
          "indexed": false,
          "internalType": "string",
          "name": "title",
          "type": "string"
        },
        {
          "indexed": false,
          "internalType": "uint256",
          "name": "startTime",
          "type": "uint256"
        },
        {
          "indexed": false,
          "internalType": "uint256",
          "name": "endTime",
          "type": "uint256"
        }
      ],
      "name": "ElectionCreated",
      "type": "event"
    },
    {
      "anonymous": false,
      "inputs": [
        {
          "indexed": true,
          "internalType": "uint256",
          "name": "electionId",
          "type": "uint256"
        }
      ],
      "name": "ElectionEnded",
      "type": "event"
    },
    {
      "anonymous": false,
      "inputs": [
        {
          "indexed": true,
          "internalType": "uint256",
          "name": "electionId",
          "type": "uint256"
        }
      ],
      "name": "ElectionStarted",
      "type": "event"
    },
    {
      "anonymous": false,
      "inputs": [
        {
          "indexed": true,
          "internalType": "address",
          "name": "previousOwner",
          "type": "address"
        },
        {
          "indexed": true,
          "internalType": "address",
          "name": "newOwner",
          "type": "address"
        }
      ],
      "name": "OwnershipTransferred",
      "type": "event"
    },
    {
      "anonymous": false,
      "inputs": [
        {
          "indexed": true,
          "internalType": "uint256",
          "name": "electionId",
          "type": "uint256"
        },
        {
          "indexed": true,
          "internalType": "uint256",
          "name": "candidateId",
          "type": "uint256"
        },
        {
          "indexed": true,
          "internalType": "bytes32",
          "name": "nullifierHash",
          "type": "bytes32"
        }
      ],
      "name": "VoteCast",
      "type": "event"
    },
    {
      "inputs": [
        {
          "internalType": "address",
          "name": "adminAddress",
          "type": "address"
        }
      ],
      "name": "addAdmin",
      "outputs": [],
      "stateMutability": "nonpayable",
      "type": "function"
    },
    {
      "inputs": [
        {
          "internalType": "uint256",
          "name": "_electionId",
          "type": "uint256"
        },
        {
          "internalType": "string",
          "name": "_name",
          "type": "string"
        }
      ],
      "name": "addCandidate",
      "outputs": [
        {
          "internalType": "uint256",
          "name": "",
          "type": "uint256"
        }
      ],
      "stateMutability": "nonpayable",
      "type": "function"
    },
    {
      "inputs": [
        {
          "internalType": "address",
          "name": "",
          "type": "address"
        }
      ],
      "name": "admins",
      "outputs": [
        {
          "internalType": "bool",
          "name": "",
          "type": "bool"
        }
      ],
      "stateMutability": "view",
      "type": "function"
    },
    {
      "inputs": [],
      "name": "candidateCount",
      "outputs": [
        {
          "internalType": "uint256",
          "name": "",
          "type": "uint256"
        }
      ],
      "stateMutability": "view",
      "type": "function"
    },
    {
      "inputs": [
        {
          "internalType": "uint256",
          "name": "",
          "type": "uint256"
        },
        {
          "internalType": "uint256",
          "name": "",
          "type": "uint256"
        }
      ],
      "name": "candidates",
      "outputs": [
        {
          "internalType": "string",
          "name": "name",
          "type": "string"
        },
        {
          "internalType": "uint256",
          "name": "voteCount",
          "type": "uint256"
        }
      ],
      "stateMutability": "view",
      "type": "function"
    },
    {
      "inputs": [
        {
          "internalType": "string",
          "name": "_title",
          "type": "string"
        },
        {
          "internalType": "uint256",
          "name": "_startTime",
          "type": "uint256"
        },
        {
          "internalType": "uint256",
          "name": "_endTime",
          "type": "uint256"
        }
      ],
      "name": "createElection",
      "outputs": [
        {
          "internalType": "uint256",
          "name": "",
          "type": "uint256"
        }
      ],
      "stateMutability": "nonpayable",
      "type": "function"
    },
    {
      "inputs": [
        {
          "internalType": "uint256",
          "name": "",
          "type": "uint256"
        },
        {
          "internalType": "uint256",
          "name": "",
          "type": "uint256"
        }
      ],
      "name": "electionCandidates",
      "outputs": [
        {
          "internalType": "uint256",
          "name": "",
          "type": "uint256"
        }
      ],
      "stateMutability": "view",
      "type": "function"
    },
    {
      "inputs": [],
      "name": "electionCount",
      "outputs": [
        {
          "internalType": "uint256",
          "name": "",
          "type": "uint256"
        }
      ],
      "stateMutability": "view",
      "type": "function"
    },
    {
      "inputs": [
        {
          "internalType": "uint256",
          "name": "",
          "type": "uint256"
        }
      ],
      "name": "elections",
      "outputs": [
        {
          "internalType": "string",
          "name": "title",
          "type": "string"
        },
        {
          "internalType": "uint256",
          "name": "startTime",
          "type": "uint256"
        },
        {
          "internalType": "uint256",
          "name": "endTime",
          "type": "uint256"
        },
        {
          "internalType": "bool",
          "name": "isActive",
          "type": "bool"
        },
        {
          "internalType": "uint256",
          "name": "totalVotes",
          "type": "uint256"
        }
      ],
      "stateMutability": "view",
      "type": "function"
    },
    {
      "inputs": [
        {
          "internalType": "uint256",
          "name": "_electionId",
          "type": "uint256"
        }
      ],
      "name": "endElection",
      "outputs": [],
      "stateMutability": "nonpayable",
      "type": "function"
    },
    {
      "inputs": [
        {
          "internalType": "uint256",
          "name": "_electionId",
          "type": "uint256"
        },
        {
          "internalType": "uint256",
          "name": "_candidateId",
          "type": "uint256"
        }
      ],
      "name": "getCandidateDetails",
      "outputs": [
        {
          "internalType": "string",
          "name": "",
          "type": "string"
        },
        {
          "internalType": "uint256",
          "name": "",
          "type": "uint256"
        }
      ],
      "stateMutability": "view",
      "type": "function"
    },
    {
      "inputs": [
        {
          "internalType": "uint256",
          "name": "_electionId",
          "type": "uint256"
        }
      ],
      "name": "getElectionCandidates",
      "outputs": [
        {
          "internalType": "uint256[]",
          "name": "",
          "type": "uint256[]"
        }
      ],
      "stateMutability": "view",
      "type": "function"
    },
    {
      "inputs": [
        {
          "internalType": "uint256",
          "name": "_electionId",
          "type": "uint256"
        }
      ],
      "name": "getElectionCounts",
      "outputs": [
        {
          "internalType": "uint256[]",
          "name": "",
          "type": "uint256[]"
        }
      ],
      "stateMutability": "view",
      "type": "function"
    },
    {
      "inputs": [
        {
          "internalType": "uint256",
          "name": "_electionId",
          "type": "uint256"
        }
      ],
      "name": "isElectionActive",
      "outputs": [
        {
          "internalType": "bool",
          "name": "",
          "type": "bool"
        }
      ],
      "stateMutability": "view",
      "type": "function"
    },
    {
      "inputs": [
        {
          "internalType": "bytes32",
          "name": "_nullifierHash",
          "type": "bytes32"
        }
      ],
      "name": "isNullifierUsed",
      "outputs": [
        {
          "internalType": "bool",
          "name": "",
          "type": "bool"
        }
      ],
      "stateMutability": "view",
      "type": "function"
    },
    {
      "inputs": [
        {
          "internalType": "bytes32",
          "name": "",
          "type": "bytes32"
        }
      ],
      "name": "nullifierUsed",
      "outputs": [
        {
          "internalType": "bool",
          "name": "",
          "type": "bool"
        }
      ],
      "stateMutability": "view",
      "type": "function"
    },
    {
      "inputs": [],
      "name": "owner",
      "outputs": [
        {
          "internalType": "address",
          "name": "",
          "type": "address"
        }
      ],
      "stateMutability": "view",
      "type": "function"
    },
    {
      "inputs": [
        {
          "internalType": "address",
          "name": "adminAddress",
          "type": "address"
        }
      ],
      "name": "removeAdmin",
      "outputs": [],
      "stateMutability": "nonpayable",
      "type": "function"
    },
    {
      "inputs": [
        {
          "internalType": "uint256",
          "name": "_electionId",
          "type": "uint256"
        }
      ],
      "name": "startElection",
      "outputs": [],
      "stateMutability": "nonpayable",
      "type": "function"
    },
    {
      "inputs": [
        {
          "internalType": "address",
          "name": "newOwner",
          "type": "address"
        }
      ],
      "name": "transferOwnership",
      "outputs": [],
      "stateMutability": "nonpayable",
      "type": "function"
    },
    {
      "inputs": [
        {
          "internalType": "uint256",
          "name": "_candidateId",
          "type": "uint256"
        },
        {
          "internalType": "bytes32",
          "name": "_nullifierHash",
          "type": "bytes32"
        }
      ],
      "name": "vote",
      "outputs": [
        {
          "internalType": "bool",
          "name": "",
          "type": "bool"
        }
      ],
      "stateMutability": "nonpayable",
      "type": "function"
    }
  ],
  "bytecode": "0x608060405234801561001057600080fd5b50600080546001600160a01b0319163390811782558152600160208190526040909120805460ff191690911790556118418061004d6000396000f3fe608060405234801561001057600080fd5b50600436106101375760003560e01c80637de14242116100b8578063a42c56f71161007c578063a42c56f7146102e8578063a9a981a3146102fb578063e4801f3914610304578063ed2ae9c114610317578063f2fde38b1461032a578063f49a7a171461033d57600080fd5b80637de142421461025d5780637ecf686d1461027e5780638da5cb5b146102a1578063997d2830146102cc5780639c98bcbb146102d557600080fd5b80635e6fef01116100ff5780635e6fef01146101ed57806368bb8bb6146102115780636d32dc4b146102245780636ee17f6f14610237578063704802751461024a57600080fd5b80631750a3d01461013c5780631785f53c1461016257806322dc7b4c14610177578063429b62e5146101aa5780635e12845e146101cd575b600080fd5b61014f61014a3660046113b4565b610350565b6040519081526020015b60405180910390f35b6101756101703660046113fb565b6104e3565b005b61019a61018536600461142b565b60009081526005602052604090205460ff1690565b6040519015158152602001610159565b61019a6101b83660046113fb565b60016020526000908152604090205460ff1681565b6101e06101db36600461142b565b61059c565b6040516101599190611444565b6102006101fb36600461142b565b610631565b6040516101599594939291906114ce565b61019a61021f366004611505565b6106ee565b61017561023236600461142b565b610939565b61019a61024536600461142b565b610ab7565b6101756102583660046113fb565b610bf0565b61027061026b366004611505565b610ca3565b604051610159929190611527565b61019a61028c36600461142b565b60056020526000908152604090205460ff1681565b6000546102b4906001600160a01b031681565b6040516001600160a01b039091168152602001610159565b61014f60065481565b6101756102e336600461142b565b610d52565b61014f6102f6366004611505565b610e64565b61014f60075481565b610270610312366004611505565b610e95565b6101e061032536600461142b565b610f51565b6101756103383660046113fb565b61106a565b61014f61034b366004611549565b611145565b3360009081526001602052604081205460ff168061037857506000546001600160a01b031633145b61039d5760405162461bcd60e51b815260040161039490611597565b60405180910390fd5b60008381526002602052604090206001015483906103cd5760405162461bcd60e51b8152600401610394906115d9565b600083511161041e5760405162461bcd60e51b815260206004820152601e60248201527f43616e646964617465206e616d652063616e6e6f7420626520656d70747900006044820152606401610394565b6007805490600061042e83611610565b9091555050604080518082018252848152600060208083018290528782526003815283822060075483529052919091208151819061046c90826116bc565b506020918201516001918201556000868152600483526040808220600780548254958601835591845294909220909201559054905185907fed8911b3df733b7d5f75724158e54478ea12e30f49c9d31b5261879f5b76586f906104d090879061177c565b60405180910390a3505060075492915050565b6000546001600160a01b0316331461050d5760405162461bcd60e51b81526004016103949061178f565b6000546001600160a01b039081169082160361057b5760405162461bcd60e51b815260206004820152602760248201527f43616e6e6f742072656d6f766520636f6e7472616374206f776e65722066726f604482015266369030b236b4b760c91b6064820152608401610394565b6001600160a01b03166000908152600160205260409020805460ff19169055565b60008181526002602052604090206001015460609082906105cf5760405162461bcd60e51b8152600401610394906115d9565b6000838152600460209081526040918290208054835181840281018401909452808452909183018282801561062357602002820191906000526020600020905b81548152602001906001019080831161060f575b505050505091505b50919050565b60026020526000908152604090208054819061064c90611637565b80601f016020809104026020016040519081016040528092919081815260200182805461067890611637565b80156106c55780601f1061069a576101008083540402835291602001916106c5565b820191906000526020600020905b8154815290600101906020018083116106a857829003601f168201915b5050506001840154600285015460038601546004909601549495919490935060ff909116915085565b60008181526005602052604081205460ff161561075b5760405162461bcd60e51b815260206004820152602560248201527f566f746520616c7265616479206361737420776974682074686973207369676e604482015264617475726560d81b6064820152608401610394565b600060015b60065481116108365760008181526002602052604090206003015460ff16801561079b57506000818152600260205260409020600101544210155b80156107b95750600081815260026020819052604090912001544211155b156108245760005b60008281526004602052604090205481101561081a5760008281526004602052604090208054879190839081106107fa576107fa6117d0565b9060005260206000200154036108125781925061081a565b6001016107c1565b5081600003610836575b8061082e81611610565b915050610760565b508060000361089b5760405162461bcd60e51b815260206004820152602b60248201527f4e6f2061637469766520656c656374696f6e20666f756e6420666f722074686960448201526a732063616e64696461746560a81b6064820152608401610394565b6000838152600560209081526040808320805460ff19166001908117909155848452600383528184208885529092528220018054916108d983611610565b909155505060008181526002602052604081206004018054916108fb83611610565b91905055508284827f96c313364ec07441c94195f44ed1e5f2656059c98a7c0c68466dac90c6fd8bf960405160405180910390a45060019392505050565b3360009081526001602052604090205460ff168061096157506000546001600160a01b031633145b61097d5760405162461bcd60e51b815260040161039490611597565b60008181526002602052604090206001015481906109ad5760405162461bcd60e51b8152600401610394906115d9565b60008281526002602052604090206003015460ff1615610a0f5760405162461bcd60e51b815260206004820152601a60248201527f456c656374696f6e20697320616c7265616479206163746976650000000000006044820152606401610394565b600082815260026020526040902060010154421115610a705760405162461bcd60e51b815260206004820152601e60248201527f456c656374696f6e2073746172742074696d65206861732070617373656400006044820152606401610394565b600082815260026020526040808220600301805460ff191660011790555183917f159eee87222a0489c529f2153c26ad65d718f2cc33ebaa8d399d1dd5b39facaa91a25050565b6000818152600260205260408120600101548290610ae75760405162461bcd60e51b8152600401610394906115d9565b600083815260026020526040808220815160a08101909252805482908290610b0e90611637565b80601f0160208091040260200160405190810160405280929190818152602001828054610b3a90611637565b8015610b875780601f10610b5c57610100808354040283529160200191610b87565b820191906000526020600020905b815481529060010190602001808311610b6a57829003601f168201915b50505091835250506001820154602082015260028201546040820152600382015460ff1615156060808301919091526004909201546080909101528101519091508015610bd8575080602001514210155b8015610be8575080604001514211155b949350505050565b6000546001600160a01b03163314610c1a5760405162461bcd60e51b81526004016103949061178f565b6001600160a01b038116610c7c5760405162461bcd60e51b8152602060048201526024808201527f41646d696e20616464726573732063616e6e6f74206265207a65726f206164646044820152637265737360e01b6064820152608401610394565b6001600160a01b03166000908152600160208190526040909120805460ff19169091179055565b6003602090815260009283526040808420909152908252902080548190610cc990611637565b80601f0160208091040260200160405190810160405280929190818152602001828054610cf590611637565b8015610d425780601f10610d1757610100808354040283529160200191610d42565b820191906000526020600020905b815481529060010190602001808311610d2557829003601f168201915b5050505050908060010154905082565b3360009081526001602052604090205460ff1680610d7a57506000546001600160a01b031633145b610d965760405162461bcd60e51b815260040161039490611597565b6000818152600260205260409020600101548190610dc65760405162461bcd60e51b8152600401610394906115d9565b60008281526002602052604090206003015460ff16610e205760405162461bcd60e51b8152602060048201526016602482015275456c656374696f6e206973206e6f742061637469766560501b6044820152606401610394565b600082815260026020526040808220600301805460ff191690555183917f562cd572b2ba3b666cd989fc4ca98419ec81e75f04528df9d9d76fdb7807ee7191a25050565b60046020528160005260406000208181548110610e8057600080fd5b90600052602060002001600091509150505481565b60008281526003602090815260408083208484529091528120600181015481546060939291908290610ec690611637565b80601f0160208091040260200160405190810160405280929190818152602001828054610ef290611637565b8015610f3f5780601f10610f1457610100808354040283529160200191610f3f565b820191906000526020600020905b815481529060010190602001808311610f2257829003601f168201915b50505050509150915091509250929050565b6000818152600260205260409020600101546060908290610f845760405162461bcd60e51b8152600401610394906115d9565b60008381526004602052604081205467ffffffffffffffff811115610fab57610fab611311565b604051908082528060200260200182016040528015610fd4578160200160208202803683370190505b50905060005b600085815260046020526040902054811015611062576000858152600460205260408120805483908110611010576110106117d0565b600091825260208083209091015488835260038252604080842082855290925291206001015484519192509084908490811061104e5761104e6117d0565b602090810291909101015250600101610fda565b509392505050565b6000546001600160a01b031633146110945760405162461bcd60e51b81526004016103949061178f565b6001600160a01b0381166110ea5760405162461bcd60e51b815260206004820181905260248201527f4e6577206f776e65722063616e6e6f74206265207a65726f20616464726573736044820152606401610394565b600080546040516001600160a01b03808516939216917f8be0079c531659141344cd1fd0a4f28419497f9722a3daafe3b4186f6b6457e091a3600080546001600160a01b0319166001600160a01b0392909216919091179055565b3360009081526001602052604081205460ff168061116d57506000546001600160a01b031633145b6111895760405162461bcd60e51b815260040161039490611597565b8183106111e35760405162461bcd60e51b815260206004820152602260248201527f53746172742074696d65206d757374206265206265666f726520656e642074696044820152616d6560f01b6064820152608401610394565b4283116112325760405162461bcd60e51b815260206004820181905260248201527f53746172742074696d65206d75737420626520696e20746865206675747572656044820152606401610394565b6006805490600061124283611610565b90915550506040805160a08101825285815260208082018690528183018590526000606083018190526080830181905260065481526002909152919091208151819061128e90826116bc565b50602082015160018201556040808301516002830155606083015160038301805460ff191691151591909117905560809092015160049091015560065490517fe7a0aae5d733e07e246dea86213a1ac1b0aa8554bde889bb75c12752f44e53d9906112fe908790879087906117e6565b60405180910390a2506006549392505050565b634e487b7160e01b600052604160045260246000fd5b600082601f83011261133857600080fd5b813567ffffffffffffffff8082111561135357611353611311565b604051601f8301601f19908116603f0116810190828211818310171561137b5761137b611311565b8160405283815286602085880101111561139457600080fd5b836020870160208301376000602085830101528094505050505092915050565b600080604083850312156113c757600080fd5b82359150602083013567ffffffffffffffff8111156113e557600080fd5b6113f185828601611327565b9150509250929050565b60006020828403121561140d57600080fd5b81356001600160a01b038116811461142457600080fd5b9392505050565b60006020828403121561143d57600080fd5b5035919050565b6020808252825182820181905260009190848201906040850190845b8181101561147c57835183529284019291840191600101611460565b50909695505050505050565b6000815180845260005b818110156114ae57602081850181015186830182015201611492565b506000602082860101526020601f19601f83011685010191505092915050565b60a0815260006114e160a0830188611488565b60208301969096525060408101939093529015156060830152608090910152919050565b6000806040838503121561151857600080fd5b50508035926020909101359150565b60408152600061153a6040830185611488565b90508260208301529392505050565b60008060006060848603121561155e57600080fd5b833567ffffffffffffffff81111561157557600080fd5b61158186828701611327565b9660208601359650604090950135949350505050565b60208082526022908201527f4f6e6c792061646d696e732063616e2063616c6c20746869732066756e63746960408201526137b760f11b606082015260800190565b60208082526017908201527f456c656374696f6e20646f6573206e6f74206578697374000000000000000000604082015260600190565b60006001820161163057634e487b7160e01b600052601160045260246000fd5b5060010190565b600181811c9082168061164b57607f821691505b60208210810361062b57634e487b7160e01b600052602260045260246000fd5b601f8211156116b7576000816000526020600020601f850160051c810160208610156116945750805b601f850160051c820191505b818110156116b3578281556001016116a0565b5050505b505050565b815167ffffffffffffffff8111156116d6576116d6611311565b6116ea816116e48454611637565b8461166b565b602080601f83116001811461171f57600084156117075750858301515b600019600386901b1c1916600185901b1785556116b3565b600085815260208120601f198616915b8281101561174e5788860151825594840194600190910190840161172f565b508582101561176c5787850151600019600388901b60f8161c191681555b5050505050600190811b01905550565b6020815260006114246020830184611488565b60208082526021908201527f4f6e6c79206f776e65722063616e2063616c6c20746869732066756e6374696f6040820152603760f91b606082015260800190565b634e487b7160e01b600052603260045260246000fd5b6060815260006117f96060830186611488565b6020830194909452506040015291905056fea2646970667358221220041d624c027dcdfc2d8f293b2e45436efcb26c60d1fb30608e92c577a0d6d40864736f6c63430008180033",
  "linkReferences": {},
  "deployedLinkReferences": {}
}